:020000040000FA
:1000000048390D00A1010000D7010000D501000012
:1000100000000000000000000000000000000000E0
:10002000000000000000000000000000D9010000F6
:100030000000000000000000DB010000DD01000006
:10004000210500002F050000870400006F05000057
:10005000710500003F0500007305000075050000F4
:1000600077050000790500007B0500007D05000094
:100070007F0500008B04000081050000A105000041
:100080008305000085050000870500008B05000042
:1000900089040000890500008D0500008F0500001F
:1000A00091050000930500009505000097050000EC
:1000B000990500009B0500009D0500009F050000BC
:1000C00000F002F800F040F80CA030C808382418FE
:1000D0002D18A246671EAB4654465D46AC4201D180
:1000E00000F032F87E460F3E0FCCB6460126334272
:1000F00000D0FB1AA246AB46334318477C280100C8
:10010000AC280100103A02D378C878C1FAD8520757
:1001100001D330C830C101D504680C6070470000BD
:100120000023002400250026103A01D378C1FBD813
:10013000520700D330C100D50B6070471FB5C046D1
:10014000C0461FBD10B510BD11F0EAFC1146FFF707
:10015000F5FF11F00BFB11F002FD03B4FFF7F2FF06
:1001600003BC11F007FD000070B505460C461646AD
:1001700002E00FCC0FC5103E102EFAD2082E02D38B
:1001800003CC03C5083E042E07D301CC01C5361F9E
:1001900003E021782970641C6D1C761EF9D270BDB5
:1001A0001248134902680A43026064235B1EFDD1B2
:1001B000104902680A4302600A235B1EFDD10E4902
:1001C00002680A4302600D480D4902680A43026052
:1001D0000C480047FEE7FEE7FEE7FEE7FEE700000B
:1001E00009480A49084A0A4B704700001CF40F00EE
:1001F00000200000040000000800000088F10F004B
:1002000000000004C100000048190D0048390D002D
:1002100048190D0000BF6A48006810210842FAD151
:10022000704770B50446FFF7F5FF01206449086088
:10023000254655202860FFF7EDFF00206049086043
:1002400070BD70B505460E46002400BF04E0610293
:100250004819FFF7E6FF641CB442F8D370BDF0B54F
:1002600087B004460F461646002005900490039080
:1002700002900190A007800F04D001200190019806
:1002800007B0F0BDB007800F03D0012001900198A6
:10029000F6E7F01C80080290600A0590E01DFF3030
:1002A000F930400A049005990498401A401C0390C4
:1002B000A0190121C904884203D9012001900198A5
:1002C000DEE7FFF7A7FF002506E0A80038580690F4
:1002D000A900069860506D1C02988542F5D3FFF77F
:1002E00099FF0198CCE7F8B507460D46164600245D
:1002F00000200090A8190121C904884203D90120D7
:1003000000900098F8BDFFF785FF002402E0285D0B
:100310003855641CB442FAD30098F3E7F8B50746A1
:100320000C461546002600200090A007800F03D041
:10033000012000900098F8BDA807800F03D001208D
:1003400000900098F7E760190121C904884203D999
:10035000012000900098EEE7FFF75CFF002604E024
:10036000B0002058B1007850761CA808B042F7D8E9
:100370000098E0E710B5FFB081B0002402F064FD02
:100380000122520200216846FFF7C8FF0020FFF754
:1003900048FF00BF06E00020C043A1006A4650505D
:1003A000601CC4B2042CF6DB012252026946002014
:1003B000FFF755FF02F052FD7FB001B010BD000005
:1003C00080F00F0000202E4908680121C90408436D
:1003D0002B490860704710B50022002100280ED07C
:1003E00020280CD8431E01249C402246F3231B03E3
:1003F00059680B4613431946F3231B03596010BD7C
:1004000010B50022002100280ED020280CD8431E51
:1004100001249C402246F3231B0359680B46934357
:100420001946F3231B03596010BD10B500220021AB
:1004300000280ED020280CD8431E01249C402246C0
:10044000F3231B0319680B4613431946F3231B03BD
:10045000196010BD10B50022002100280ED0202800
:100460000CD8431E01249C402246F3231B03196829
:100470000B4693431946F3231B03196010BD00007C
:1004800000F20F0070477047704770B501204003BD
:1004900044490860C320444908710846057A047A33
:1004A000E807C00F34D10220054231D104200542B3
:1004B0002ED1E007C00F02D000F007FD28E0022097
:1004C000044202D000F0BCFD22E00420044202D02D
:1004D00000F01AFE1CE00820044202D000F04FFE9B
:1004E00016E01020044202D000F071FE10E020203F
:1004F000044202D000F09BFE0AE04020044202D0F9
:1005000000F09FFD04E08020044201D000F0D4FD03
:1005100001231A460D212348803800F05EF970BD92
:1005200010B5224800F02AF901F0A4FE10BD10B564
:100530001E48203000F022F901F0E5FE10BD002039
:100540001A494031C868C107C90F012903D188433E
:1005500016494031C86015494031C86AC107C90F02
:10056000012903D1884311494031C862704770475F
:1005700070477047704770477047704770477047C3
:1005800070477047704770477047704770477047B3
:1005900070477047704770477047704770477047A3
:1005A0007047704780E100E080A00F0000080F0056
:1005B000812000064F49886070474E4A1069FF222B
:1005C000013210434B4A1061002000E0401C03221E
:1005D00012039042FAD3474A106901221043454A58
:1005E0001061106901E0434A106902220240022AA8
:1005F000F9D1404A916840499160704710B5FFF7C2
:10060000E1FE10BD0EB54021684601700021417029
:1006100081700221C1700021017138480290694641
:10062000374800F085F801231A460021354800F0CC
:10063000D4F8334800F096F83048029069463048C4
:10064000203800F075F801231A4619462D4800F0AD
:10065000C4F82B48203800F085F80EBD00B58BB0EB
:100660000020019002900390012005900320069045
:10067000FF200130079000200890049009900A9014
:1006800001A8DBF0BBFA0BB000BD00201E490870CA
:100690001E4908701E4908601E4908701E490880DE
:1006A0001E4908801E4908801E4908801E4908709E
:1006B0001E490870704710B50AF028FC02F0DEFCF5
:1006C000FFF7E3FF0AF0ACFC10F090FB002010F005
:1006D00095FB032010F09EFB10BD10B500F097F8BD
:1006E000FFF78CFFFFF78EFFFFF7B8FF11F04AFA14
:1006F00010BD000000F20F0001000110A0BB0D00B2
:1007000020080F0000E100E0D3000D00AC000D0058
:10071000B0000D00A0000D00B4000D009A000D0007
:100720009C000D009E000D0094000D0095000D0032
:1007300010B50022144B1A6801235B021A43124BB6
:100740001A6000228B680360826800220B784C7864
:1007500023438C782343CC7823430C7923431A43D7
:10076000826010BD00218168802211438160704742
:10077000002181684906490E816070470021C168E7
:1007800049084900C160704700F20F0009200004C9
:10079000FE4908602120C00208608020FC490860F2
:1007A0000220FA494862C020F94908710E200872F7
:1007B00000BFF648406AFF2101310842F9D000200D
:1007C000F2498039C8610120C8618020F049086081
:1007D000C02008710E200872704730B50125954081
:1007E0006D1E8D40EC430568254005601D468D401B
:1007F0002C4605682543056030BD30B503461C68AE
:10080000CC40012595406D1E2C40204630BD10B5D2
:10081000FFF7BCFF0020DF4908701020DE49C870D8
:10082000DE4808614861002048608860C860487000
:10083000887008701020DA49C870DA480861486189
:10084000002048608860C860487088700120087087
:100850004020D549C870D3480861486100204860ED
:100860008860C86048708870022008704020CF49B6
:10087000C870CC4808614861002048608860C86042
:10088000487088700320087010BD30B502460B46D2
:10089000BF4C22718024BE4D2C712C46207A002A38
:1008A00009D1002104E0BA4C247A5C544C1CE1B21A
:1008B0008142F8DB55E0022A1AD1B94CE47884422F
:1008C00001DCB74CE078002107E0B14C247AB44D4C
:1008D000AD686D185C554C1CE1B28142F5DBB04C43
:1008E000A4682418AE4DAC602C46A4686C6038E057
:1008F000042A1AD1AC4CE478844201DCAA4CE0789A
:10090000002107E0A24C247AA74DAD686D185C5514
:100910004C1CE1B28142F5DBA34CA4682418A24D23
:10092000AC602C46A4686C601BE0062A19D19F4C71
:10093000E478844201DC9D4CE078002107E0944C8F
:10094000247A9A4DAD686D185C554C1CE1B2814219
:10095000F5DB964CA4682418944DAC602C46A46832
:100960006C6083248A4D2C7182242C7130BD10B5AB
:100970000246002900D110BD854B1A71187A022356
:100980000340022B00D0F6E7012A02D18323804CDA
:10099000237182237E4C237180232371CC784B6892
:1009A000A34213D3002005E04B691B5C784C2372F3
:1009B000431CD8B2CB788342F6DCCC784B691B1948
:1009C0004B61CC784B681B1B4B601DE0002005E0A1
:1009D0004B691B5C6E4C2372431CD8B24B6883423C
:1009E000F6D800234B600B78012B02D1704B4B6182
:1009F0000AE00B78022B02D16A4B4B6104E00B78C2
:100A0000032B01D1674B4B618123614C237100BFE4
:100A1000B1E7002100BF01225D4B1A711A46107A1E
:100A200002220240022A04D00A46491C614B9A4223
:100A3000F1D38322564B1A7182221A7180221A71C5
:100A400081221A71002100BF4122514B1A711A46AE
:100A5000107AC207D20F04D10A46491C554B9A425C
:100A6000F2D301224A4B1A711A46127A7047FEB528
:100A70000C46002000906068002802D1FFF7C9FFF3
:100A8000FEBD6568002746E000BF012040490871AF
:100A90000846007A0190022101980840022805D0FA
:100AA0000098411C009143498842EED38320384985
:100AB00008718220087180200871102D01D9102042
:100AC00000E02846C6B20020029009E06169029861
:100AD0003818085C2E4908720298401C80B20290B7
:100AE0000298B042F2DB8120294908710020009071
:100AF00000BF4120264908710846007A01900198FC
:100B0000C007C00F05D10098411C009129498842B7
:100B1000EFD3BF19AD1B002DB6D160680007000FE1
:100B200002D1FFF776FF04E0012019490871084659
:100B3000007A00BFA4E7002100BF0522144B1A7100
:100B40001A46107A02220240022A04D00A46491CA0
:100B5000184B9A42F1D382220D4B1A7180221A71DE
:100B600081221A71002100BF4522094B1A711A46D1
:100B7000107AC207D20F04D10A46491C0D4B9A4283
:100B8000F2D30522024B1A711A4615E000F20F004B
:100B900080A00F0016000D0038020D0000010D00AE
:100BA00050020D0020010D0068020D0080020D00B2
:100BB0000C000D0040420F00127A7047F649498838
:100BC000C9B2802211430846C121F44A117111466D
:100BD00008720021F24A5160F2495161704770B5C4
:100BE0000025ED48C088F0490860EB484088FF21A7
:100BF000090208400612E8484088C4B2012E06D017
:100C0000022E1FD0032E31D0222E75D166E0E74888
:100C100002780146E34810F008FEE3480068122815
:100C200002D31220E0490860E1484078DD4988722B
:100C3000DF480078C872DC480068D9494860D94864
:100C400048615AE0DB48C5782802DA4989780843C8
:100C50000546D5480068A84201D9D3480560D24866
:100C60000068CF494860D348486146E0052C09DC5C
:100C7000D148005DCC490968884203D2CE48005D66
:100C8000C9490860230011F033F80604080C101459
:100C9000181CCA48C24948611AE0C948C04948619D
:100CA00016E0C848BE49486112E0C748BC494861DF
:100CB0000EE0C648BA4948610AE0C548B8494861EB
:100CC00006E0BE48B64948610078B749086000BFF1
:100CD00000BFB5480068B24948600EE0B2480068FD
:100CE000732801D9732001E0AF480068AC4948601F
:100CF000B848486101E0FFE700BF00BF70BDA649EA
:100D00004988C8B2012803DD0121A54A91707047C6
:100D1000C221A24A117111460872AF490870002120
:100D20009F4A51609F49516100BFF0E7AA4800788F
:100D30009C49087001209A4948609A484861704768
:100D4000A64897494861042048607047A4489449E0
:100D500048610420486070470020914948609148EC
:100D600048617047C2208D490871087101200872DE
:100D70007047704770474106080E8749898880226E
:100D8000114201D0411CC8B2704700B582480078BA
:100D9000C306DB0E002B03D10220824908701CE041
:100DA000012B03D100207F49087016E0022B14D1DB
:100DB0007948808803071B0F032B03DD0120784946
:100DC000887000BD1846FFF7D6FF034673480371CD
:100DD000037AD807C00F7349087000207149487022
:100DE00002206F4948606F48486100BFE9E730B5AD
:100DF000054669480078C306DB0E002B03D00120AE
:100E00006749887030BDC120644908710846037A7B
:100E1000614880880407240F002B01D1002C01D1E8
:100E2000032C03DD01205E498870EBE72046FFF7C5
:100E3000A2FF034618464030C3B258480371032D41
:100E400003D10120554908720CE0534880880007FF
:100E5000000F022803D100205049087202E0002050
:100E60004E49087200204E4948604E48486100BF14
:100E7000C8E770474848808847494988084304D1F3
:100E8000474948604748486102E00120444988706A
:100E9000704700204249486042484861704700203E
:100EA0004049087001203E4948603E48486170470B
:100EB00041203A4908710120087240200871012040
:100EC0000872002036498870704770B54020334959
:100ED00008710846057AE807C00F4FD02020054268
:100EE00059D02D490020FFF7D0FC2B480478602111
:100EF0000C40002C43D14078030010F0F9FE0C2088
:100F0000371A1D370A0737170D342A37FFF767FEE0
:100F10002FE0FFF753FE2CE0FFF7F1FE204880782A
:100F2000012802D1FFF7C4FF70BD22E0FFF7FEFEEB
:100F30001FE0FFF705FF1CE0FFF708FF19E0FFF7D0
:100F400024FF17488078012802D1FFF7B1FFEBE7B3
:100F50000FE0FFF78FFF12488078012802D1FFF7DA
:100F6000A7FFE1E705E0FFF794FF02E0FFF7A0FF2E
:100F7000DAE700BF0A490120FFF779FD5EE0202C87
:100F800051D1054840780A2840D02BDC012830D0C8
:100F9000092841D130E04CE00E000D0080A00F0088
:100FA00038020D0000010D0008000D001C1D01009D
:100FB000BC140D00A11D01002F1E0100D31D010056
:100FC000D71D0100E31D0100F11D0100051E0100F8
:100FD0001B1E01002E1D010016000D00141D010036
:100FE000181D01000B2814D0FE2815D1FFF757FF5C
:100FF00013E002F04CFA97E78D48C0888D490880CD
:1010000000208D49088002F019FB8DE702F05BF9A2
:1010100003E002F05EF900E000BF00BF8749012055
:10102000FFF725FD0AE000208449486084484861B4
:1010300004E00120834908710846007A00BF73E785
:10104000704710B546207F4908710846047AE007CA
:10105000C00F30D07C4801690620FFF716FC7B48A2
:1010600000797B49086008460068000208607748FC
:10107000C07809680843764908600846006800029D
:10108000086072488078096808437149086008461A
:101090000068000208606D484078096808436C49A0
:1010A0000860694841686A4800680A30814202D194
:1010B00033206849087010BD10B547206149087198
:1010C0000846047AE007C00F012800D010BD0720B1
:1010D0005C4908710846047A0220044212D05A483A
:1010E0004068002804D058490720FFF740FC09E079
:1010F00055484078012805D1002053494870072001
:10110000FFF735FC00BFE1E710B542204D490871FB
:101110000846047AE007C00F30D04F48016902202A
:10112000FFF7B3FB49480079494908600846006861
:10113000000208604548C0780968084344490860CF
:101140000846006800020860404880780968084343
:101150003F49086008460068000208603B48407844
:10116000096808433A4908603B48416838480068C4
:101170000A30814202D111203649087010BD10B5E5
:101180004320304908710846047AE007C00F01285F
:1011900000D010BD03202B4908710846047A0220B4
:1011A000044212D02C484068002804D02A49032069
:1011B000FFF7DDFB09E028484078012805D1002031
:1011C000254948700320FFF7D2FB00BFE1E770B567
:1011D00044201C4908710846057AE807C00F25D04D
:1011E00004200871802008710846057A00201B49F8
:1011F0000860002408E01348007A184909680919B2
:10120000174A5054601CC4B2AC42F4DB1348006867
:1012100040191249086004200A49087182200871A7
:101220000E4800681F2801D103F09CF870BD70477C
:101230000E000D009A000D009C000D0038020D00FC
:1012400000010D0080A00F0080020D0020010D00A4
:101250001C000D0017000D0050020D00B8000D001D
:1012600060090D0070B504460D462A462146F8482F
:1012700010F0DBFA0120F7490870002070BDFFB5BF
:1012800089B006460F46129C00200890002E04D01C
:10129000012E02D0A320089061E0012E01D1082088
:1012A00000E0002005462046E117490F0918C91043
:1012B000C900611A02D0A420089050E0E5480078E7
:1012C000002849D0E2480290139803902046E11785
:1012D000490F0918C91005910B9804900C980690B5
:1012E000012F06D0022F10D0032F18D0042F2FD19A
:1012F00022E0012028430190D748416B01A888478C
:10130000002801D00120089025E00195D248416BCA
:1013100001A88847002801D0012008901BE028463A
:10132000212108430190CC48816B01A888470028FF
:1013300001D0012008900EE0202028430190C648EB
:10134000816B01A88847002801D00120089002E0A5
:10135000A220089000BF01E0A120089000BF00205B
:10136000BC49087008980DB0F0BD10B504461022B5
:101370002146BA4810F059FA0120B94908700020F6
:1013800010BDFFB589B005460F46129C002008909D
:10139000012D04D0022D02D0A320089044E0022D9C
:1013A00001D1082000E0002006462046E117090F81
:1013B000091809110901611A02D0A420089033E02C
:1013C000A748007800282CD0A448029013980390D6
:1013D0002046E117090F0918091105910B9804908F
:1013E0000C980690012F02D0022F16D10BE001209D
:1013F000304301909848C16A01A88847002801D06D
:10140000012008900CE001969348C16A01A8884722
:10141000002801D00120089002E0A220089000BF1F
:1014200001E0A120089000BF00208D4908700898B5
:101430000DB0F0BDF0B589B005460F4616461C4606
:1014400000200890012D04D0022D02D0A320089086
:1014500042E0022D01D1082000E000200790204644
:10146000E117090F091809110901611A02D0A42016
:10147000089031E07A48007800282AD07748019017
:101480000E9802902046E117090F091809110491DE
:101490000397059601210798084300906E48C16A9A
:1014A00068468847002802D00120089014E0012DEA
:1014B00007D130190146103910220E9810F0B5F9F5
:1014C00009E038190146103910220E9810F0ADF9D4
:1014D00001E0A120089000BF002061490870089831
:1014E00009B0F0BDF0B589B005460E4617461C465A
:1014F00000200890012D04D0022D02D0A3200890D6
:101500002EE0022D01D1082000E0002007902046A7
:10151000E117090F091809110901611A02D0A42065
:1015200008901DE04E480078002816D04B480190E6
:10153000002002902046E117090F091809110491B3
:1015400003960597079800904348C16A6846884704
:10155000002804D00120089001E0A120089000BFDD
:1015600000203F490870089809B0F0BDFFB589B068
:10157000054616461F46129C00200890012D04D0F7
:10158000022D02D0A320089058E0022D01D108209E
:1015900000E0002007902046E117090F0918091103
:1015A0000901611A02D0A420089047E02C48007875
:1015B000002840D029480190139802902046E11756
:1015C000090F091809110491039605970A98012833
:1015D00002D002282BD11EE0012107980843009079
:1015E0001D48C16A68468847002802D0012008903B
:1015F00024E0012D07D13819014610391022139823
:1016000010F013F906E03019014610391022139832
:1016100010F00BF90EE0079800900F48C16A684679
:101620008847002802D00120089007E002E0A220AD
:10163000089000BF01E0A120089000BF0898002892
:1016400002D000200649087008980DB0F0BD0000D7
:1016500098020D0020000D00381E0100B0020D00A0
:1016600021000D00FFB589B0054617461E46129CA5
:1016700000200890012D04D0022D02D0A320089054
:101680005AE0022D01D1082000E0002007902046FA
:10169000E117090F091809110901611A02D0A420E4
:1016A000089049E0FE480078002842D0002C42DD36
:1016B000FC480190139802902046E117090F091881
:1016C00009110491039705960A98012802D002286F
:1016D0002BD11EE00121079808430090F248C16A0F
:1016E00068468847002802D00120089024E0012D98
:1016F00007D13019014610391022139810F095F8CF
:1017000006E03819014610391022139810F08DF8B0
:101710000EE007980090E448C16A684688470028B0
:1017200002D00120089007E002E0A220089000BF4C
:1017300001E0A120089000BF0020D94908701021C5
:10174000D84810F023F908980DB0F0BD10B5044644
:1017500010222146D54810F068F80120D4490870BD
:10176000002010BDFFB589B005460F46129C002031
:101770000890012D04D0022D02D0A320089044E04F
:10178000022D01D1082000E0002006462046E11786
:10179000090F091809110901611A02D0A420089043
:1017A00033E0C348007800282CD0C048029013983A
:1017B00003902046E117090F0918091105910B98AC
:1017C00004900C980690012F02D0022F16D10BE046
:1017D000012030430190B448016801A888470028DF
:1017E00001D0012008900CE00196AF48016801A8E3
:1017F0008847002801D00120089002E0A22008902C
:1018000000BF01E0A120089000BF0020A849087097
:1018100008980DB0F0BDF0B589B005460F461646E4
:101820001C4600200890012D04D0022D02D0A320D8
:10183000089041E0022D01D1082000E0002007902F
:101840002046E117090F091809110901611A02D090
:10185000A420089030E096480078002829D09348CA
:1018600001900E9802902046E117090F09180911FE
:1018700004910397059601210798084300908A4830
:10188000016868468847002801D001200890012D92
:1018900007D130190146103910220E980FF0C5FFFC
:1018A00009E038190146103910220E980FF0BDFFDB
:1018B00001E0A120089000BF00207D490870089831
:1018C00009B0F0BDF0B589B005460E4617461C4676
:1018D00000200890012D04D0022D02D0A3200890F2
:1018E0002EE0022D01D1082000E0002007902046C4
:1018F000E117090F091809110901611A02D0A42082
:1019000008901DE06A480078002816D067480190CA
:10191000002002902046E117090F091809110491CF
:1019200003960597079800905F48016868468847C6
:10193000002804D00120089001E0A120089000BFF9
:1019400000205B490870089809B0F0BDFFB589B068
:10195000054616461F46129C00200890012D04D013
:10196000022D02D0A320089058E0022D01D10820BA
:1019700000E0002007902046E117090F091809111F
:101980000901611A02D0A420089047E04848007875
:10199000002840D045480190139802902046E11756
:1019A000090F091809110491039605970A9801284F
:1019B00002D002282BD11EE0012107980843009095
:1019C0003948016868468847002802D001200890FD
:1019D00024E0012D07D1381901461039102213983F
:1019E0000FF023FF06E0301901461039102213983A
:1019F0000FF01BFF0EE0079800902B480168684627
:101A00008847002802D00120089007E002E0A220C9
:101A1000089000BF01E0A120089000BF08980028AE
:101A200002D000202249087008980DB0F0BDFFB523
:101A300089B0054617461E46129C00200890012DCD
:101A400004D0022D02D0A320089065E0022D01D120
:101A5000082000E0002007902046E117090F091830
:101A600009110901611A02D0A420089054E010481D
:101A7000007800284DD0002C4DDD0C4801901398C3
:101A800002902046E117090F0918091104910397E4
:101A900005960A9801280DD0022836D129E00000C9
:101AA00021000D00B0020D00381E0100C0020D0023
:101AB00022000D0001210798084300901B4801688F
:101AC00068468847002802D00120089024E0012DB4
:101AD00007D1301901461039102213980FF0A5FED6
:101AE00006E0381901461039102213980FF09DFEB8
:101AF0000EE0079800900D48016868468847002866
:101B000002D00120089007E002E0A220089000BF68
:101B100001E0A120089000BF0020054908701021B5
:101B200004480FF033FF08980DB0F0BD381E0100D7
:101B300022000D00C0020D00FFB5A5B00C461546F1
:101B40001F46002024909A481CABC6692F9A2E99F4
:101B50002598B0479648016A6846884794482022ED
:101B60001CA9436A6846984791483A462946436A01
:101B7000684698478E481CA9826A68469047204666
:101B80000FF008FF064620221CA90FF04EFE2498F5
:101B900029B0F0BDF8B504460D461E460027002EBC
:101BA00001D0A52708E08248214642682846904790
:101BB000002800D0012700BF3846F8BDF0B593B02B
:101BC00005460F461C46189E0020129002A8009061
:101BD0000AA8019076486A4639460369284698471C
:101BE000002807D1402202A920460FF01EFE402007
:101BF000306001E001201290129813B0F0BDFFB5E3
:101C000093B0074614461D461C9E00201290202CBF
:101C100001D1402E02D0A620129013E002A800901D
:101C20000AA801904022294602A80FF0FEFD604854
:101C30006A464369384614999847002801D0012024
:101C4000129000BF129817B0F0BDFFB589B00C46D6
:101C500015461F46129E00200890304661302968C4
:101C6000814202D2A72008901FE002970396042029
:101C70002070601C0090203001906846049020463F
:101C80004130069020300590494804AA02A9836893
:101C900009989847002805D1304661302860002017
:101CA000089001E00120089000BF08980DB0F0BD39
:101CB000F0B589B007460D4616461C460020089030
:101CC0000295601C009020300190684604902046E8
:101CD00041300690203005900E98613807903448C6
:101CE00002AA04A9C36838469847002801D00120F9
:101CF000089003983060089809B0F0BDFFB589B02E
:101D00000D4617461C46129E002008900295601C46
:101D100000902030019068460490204641300590A4
:101D2000A01920380690304661380790204802AA52
:101D300004A9C36809989847002801D00120089099
:101D40000398386008980DB0F0BDF0B58BB004462C
:101D50000D4616461F4600200A90002C04D0012C88
:101D600002D0A8200A9020E00094149801900296D6
:101D700003950020049010980590069711980790FD
:101D8000002C04D1129808901398099003E013983E
:101D900008901298099006488269684615999047FC
:101DA000002801D001200A9000BF0A980BB0F0BDB6
:101DB000381E0100FFB58BB014461F4600260020D8
:101DC0000990012189020B98884201D1002509E080
:101DD0000121C9020B98884201D1012502E0A92006
:101DE00009904BE0AA490C98884202D80C98032825
:101DF00002D2AA20099041E0002609E00321891BB4
:101E00000AAA0C9850540C98000A0C90701CC6B288
:101E1000042EF3DB0AA8009060680190002F0ED119
:101E2000E0680290606803909A4802AA6946836F4E
:101E300028469847002819D0012009901EE0206903
:101E4000049060690590A0690690E0690790206A97
:101E500008900821294308468E4904AA8B6F6946D9
:101E60009847002802D00120099007E00B982080B5
:101E700004220AA9A0680FF0D8FC00BF09980FB08F
:101E8000F0BDFFB5C3B00F461D464C9C00204290EC
:101E9000208801218902884201D1002609E020889A
:101EA0000121C902884201D1012602E0A920429005
:101EB00027E02088C010A84202D0AB20429020E04A
:101EC000A068409060684190FF21013168460FF0A2
:101ED0005FFD2A46684645990FF0A7FC6D488030A3
:101EE0006A4640A9436830469847002806D12A46EA
:101EF000694643980FF099FC3D6001E00120429053
:101F000000BF429847B0F0BDFFB583B007460C9CB8
:101F100000200290208801218902884201D10025F9
:101F200009E020880121C902884201D1012502E08F
:101F3000A92002901DE02088C1100698814204D19A
:101F40002088C1100498814202D0AB20029010E09A
:101F5000A0680090606801904E4880303B4606685B
:101F600069462846059AB047002801D00120029012
:101F700000BF029807B0F0BDFFB5C3B00F461D46C5
:101F80004C9C00204290208801218902884201D186
:101F9000002609E020880121C902884201D10126DA
:101FA00002E0A920429026E02088C010A84202D07A
:101FB000AB2042901FE0E068409060684190FF21B4
:101FC000013168460FF0E4FC2A46684645990FF057
:101FD0002CFC30486A4640A9C36F30469847002819
:101FE00006D12A46694643980FF01FFC3D6001E088
:101FF0000120429000BF429847B0F0BDFFB5C7B086
:102000000F461D46509C00204690208801218902E1
:10201000884201D1002609E020880121C9028842B6
:1020200001D1012602E0A92046902EE02088C010B0
:10203000A84202D0AB20469027E020694190606919
:102040004290A0694390E0694490206A4590FF2146
:10205000013101A80FF09CFC2A4601A849990FF014
:10206000E4FB0821314308460A4901AACB6F41A984
:102070009847002806D12A4601A947980FF0D5FBBA
:102080003D6001E00120469000BF46984BB0F0BD96
:1020900001000100381E01001FB504460020009019
:1020A0000190029003901248416F684688470822C9
:1020B000694620460FF0B9FB002004B010BD1FB5E3
:1020C0000446002000900190029003900848416F60
:1020D00068468847082202A920460FF0A6FB08227E
:1020E0006946A0180FF0A1FB002004B010BD00004D
:1020F000381E0100704770477047704700B50300F5
:102100000FF0F6FD0805090D1115191D21250021F7
:10211000964A11701BE00021954A117017E00021CA
:10212000944A117013E00021934A11700FE00021CE
:10213000924A11700BE00021914A117007E00021D2
:10214000904A117003E000218F4A117000BF00BF58
:1021500000BD10B58D488079642148438C490968D9
:1021600088420DD20420FFF7C9FF002101200EF0A4
:102170009BFF0EF0BEFF0121890286480FF006FC8E
:1021800010BD704710B58448006828280BD900207E
:1021900081490860814800780EF030FE7F48007861
:1021A000C0437E49087010BD00B503000FF0A0FDCC
:1021B00008050C131A21282F363D0021784A11609A
:1021C00001216A4A117030E00021764A1160012134
:1021D000674A117029E00021734A11600121654AA4
:1021E000117022E00021714A11600121624A1170D0
:1021F0001BE00021664A11600121604A117014E061
:1022000000216B4A116001215D4A11700DE000212F
:10221000614A116001215B4A117006E00021654AA4
:1022200011600121584A117000BF00BF00BD10B5F8
:1022300054480078012805D00620FFF7B5FF00209C
:10224000564908705C4800784000282148435949A5
:10225000096888420DD20020564908605649087026
:102260000620FFF74BFF0720FFF748FF01200EF085
:10227000C5FD10BD3D480078012804D148480068DC
:10228000401C474908603A480078012804D1454875
:102290000068401C4349086036480078012804D192
:1022A00041480068401C40490860334800780128D4
:1022B00004D13E480068401C3C4908602F48007823
:1022C000012804D132480068401C314908602C487C
:1022D0000078012804D136480068401C3449086061
:1022E00028480078012804D12B480068401C2A495E
:1022F000086025480078012804D12E480068401C59
:102300002C490860704710B518480078012801D1A1
:10231000FFF7F0FE16480078012801D1FFF7EBFE29
:1023200014480078012801D1FFF7E6FE1248007832
:10233000012801D1FFF7E1FE10480078012801D102
:10234000FFF707FF0E480078012801D1FFF719FFBA
:102350000C480078012801D1FFF714FF0A480078E3
:10236000012801D1FFF763FF10BD000024000D001C
:1023700025000D0026000D0027000D0028000D008F
:1023800029000D002A000D002B000D00BC140D00CB
:102390003C000D00BC100D0044000D00F7000D00C6
:1023A0002C000D0030000D0034000D0038000D0031
:1023B00040000D0048000D00F8000D0000224261B1
:1023C0000261FE490160FE494160FC49C9438160E8
:1023D000FB49C943C160704770B503460024002023
:1023E00010E00D5C461C8E5D36023543861C8E5D0A
:1023F00036043543C61C8E5D36063543A6009D5116
:10240000641C001D9042ECD370BDF3B591B01198DF
:10241000046811984568119886681198C768402229
:1024200001A81299FFF7D8FF284630403946A94342
:10243000084301994018E34940180419E001610E6E
:10244000084304466419204628403146A143084306
:1024500002994018DC494018C7193803390D084360
:1024600007463F19384620402946B9430843039997
:102470004018D649401886197004F10B08430646E7
:10248000F619304638402146B143084304994018B4
:10249000CF4940184519A805A90A08430546AD19B2
:1024A000284630403946A943084305994018C94990
:1024B00040180419E001610E0843044664192046DF
:1024C00028403146A143084306994018C2494018A4
:1024D000C7193803390D084307463F1938462040CD
:1024E0002946B943084307994018BC494018861942
:1024F0007004F10B08430646F61930463840214671
:10250000B143084308994018B54940184519A80532
:10251000A90A08430546AD19284630403946A94363
:10252000084309994018AF4940180419E001610EA9
:10253000084304466419204628403146A143084315
:102540000A994018A8494018C7193803390D08439B
:1025500007463F19384620402946B94308430B999E
:102560004018A249401886197004F10B084306462A
:10257000F619304638402146B14308430C994018BB
:102580009B4940184519A805A90A08430546AD19F5
:10259000284630403946A94308430D9940189549CB
:1025A00040180419E001610E0843044664192046EE
:1025B00028403146A14308430E9940188E494018DF
:1025C000C7193803390D084307463F1938462040DC
:1025D0002946B94308430F9940188849401886197D
:1025E0007004F10B08430646F61930463840214680
:1025F000B143084310994018814940184519A8056E
:10260000A90A08430546AD19284638403146B94362
:102610000843029940187B49401804196001E10EF3
:10262000084304466419204630402946B143084314
:102630000799401874494018C7197802F90D0843E2
:1026400007463F19384628402146A94308430C99BC
:1026500040186E4940188619B003B10C084306466D
:10266000F619304620403946A143084301994018E5
:102670006749401845192805290B08430546AD1937
:10268000284638403146B943084306994018614905
:10269000401804196001E10E0843044664192046FD
:1026A00030402946B14308430B9940185A49401815
:1026B000C7197802F90D084307463F1938462840E4
:1026C0002146A943084310994018544940188619D7
:1026D000B003B10C08430646F6193046204039468F
:1026E000A1430843059940184D494018451928054C
:1026F000290B08430546AD19284638403146B943F1
:1027000008430A9940184749401804196001E10E2E
:10271000084304466419204630402946B143084323
:102720000F99401840494018C7197802F90D08431D
:1027300007463F19384628402146A94308430499D3
:1027400040183A4940188619B003B10C08430646B0
:10275000F619304620403946A143084309994018EC
:102760003349401845192805290B08430546AD197A
:10277000284638403146B94308430E9940182D4940
:10278000401804196001E10E08430446641920460C
:1027900030402946B1430843039940182649401860
:1027A000C7197802F90D084307463F1938462840F3
:1027B0002146A9430843089940183FE00123456793
:1027C00089ABCDEF78A46AD756B7C7E8DB70202471
:1027D000EECEBDC1AF0F7CF52AC68747134630A8A1
:1027E000019546FDD8988069AFF7448BB15BFFFF38
:1027F000BED75C892211906B937198FD8E4379A6A8
:102800002108B44962251EF640B340C0515A5E26E5
:10281000AAC7B6E95D102FD65314440281E6A1D8A9
:10282000C8FBD3E7E6CDE121D60737C3870DD5F442
:10283000ED145A4505E9E3A9F8A3EFFCFE49401859
:102840008619B003B10C08430646F61930462040FD
:102850003946A14308430D994018F84940184519D5
:102860002805290B08430546AD19284670407840D5
:1028700006994018F249401804192001210F084315
:102880000446641920466840704009994018ED4993
:102890004018C719F802790D084307463F19384612
:1028A000604068400C994018E74940188619300488
:1028B000310C08430646F6193046784060400F99BF
:1028C0004018E24940184519E805690A08430546D9
:1028D000AD1928467040784002994018DC494018EC
:1028E00004192001210F084304466419204668405A
:1028F000704005994018D7494018C719F802790D5A
:10290000084307463F193846604068400899401818
:10291000D149401886193004310C08430646F6198F
:102920003046784060400B994018CC494018451912
:10293000E805690A08430546AD1928467040784005
:102940000E994018C649401804192001210F084368
:102950000446641920466840704001994018C149F6
:102960004018C719F802790D084307463F19384641
:102970006040684004994018BB49401886193004EB
:10298000310C08430646F6193046784060400799F6
:102990004018B64940184519E805690A0843054634
:1029A000AD192846704078400A994018B04940183F
:1029B00004192001210F0843044664192046684089
:1029C00070400D994018AB494018C719F802790DAD
:1029D000084307463F193846604068401099401840
:1029E000A549401886193004310C08430646F619EB
:1029F00030467840604003994018A0494018451976
:102A0000E805690A08430546AD192846F943084315
:102A10007040019940189A4940180419A001A10E6C
:102A20000843044664192046F14308436840089966
:102A3000401894494018C719B802B90D0843074611
:102A40003F193846E943084360400F9940188E49C2
:102A500040188619F003710C08430646F6193046F3
:102A6000E1430843784006994018884940184519C1
:102A70006805E90A08430546AD192846F9430843A5
:102A800070400D994018824940180419A001A10E08
:102A90000843044664192046F143084368400499FA
:102AA00040187C494018C719B802B90D08430746B9
:102AB0003F193846E943084360400B99401876496E
:102AC00040188619F003710C08430646F619304683
:102AD000E14308437840029940187049401845196D
:102AE0006805E90A08430546AD192846F943084335
:102AF0007040099940186A4940180419A001A10EB4
:102B00000843044664192046F1430843684010997D
:102B1000401864494018C719B802B90D0843074660
:102B20003F193846E94308436040079940185E4919
:102B300040188619F003710C08430646F619304612
:102B4000E143084378400E99401858494018451908
:102B50006805E90A08430546AD192846F9430843C4
:102B6000704005994018524940180419A001A10E5F
:102B70000843044664192046F143084368400C9911
:102B800040184C494018C719B802B90D0843074608
:102B90003F193846E94308436040039940184649C5
:102BA00040188619F003710C08430646F6193046A2
:102BB000E143084378400A994018404940184519B4
:102BC0006805E90A08430546AD191198006801191E
:102BD000119801601198406841191198416011984D
:102BE00080688119119881601198C068C119119885
:102BF000C160402101A80EF0CBFE13B0F0BDF7B5C7
:102C000082B0044615462069C005800E0190E90097
:102C100020694018E9002061884202D26069401CA6
:102C20006061690F606941186161402101980F1A64
:102C3000BD4260D3214643E0D9026F678A4C2A8D9A
:102C40004239FAFF81F6718722619D6D0C38E5FDEE
:102C500044EABEA4A9CFDE4B604BBBF670BCBFBE3E
:102C6000C67E9B28FA27A1EA8530EFD4051D88048B
:102C700039D0D4D9E599DBE6F87CA21F6556ACC4FF
:102C8000442229F497FF2A43A72394AB39A093FC4D
:102C9000C3595B6592CC0C8F7DF4EFFFD15D8485C9
:102CA0004F7EA86FE0E62CFE144301A3A111084E4D
:102CB000827E53F735F23ABDBBD2D72A91D386EB49
:102CC0001831019A88183A4603990EF0AEFD214654
:102CD00018312046FFF799FB3E4605E0039881191D
:102CE0002046FFF792FB403630463F30A842F5D3EE
:102CF0000020019000E00026AA1B039881192046BD
:102D00001830019BC01800900EF08FFD05B0F0BD8B
:102D100070B5034614460022002015E095004D5979
:102D20001D5495004D592D042D0E461C9D559500A2
:102D30004D592D022D0E861C9D5595004D592D0E79
:102D4000C61C9D55521C001DA042E7D370BDFEB5A8
:102D500004460E460822214610316846FFF7D8FF88
:102D60002069C005850E382D02D23820401B01E0B5
:102D70007820401B07463A4609492046FFF73FFFA7
:102D8000082269462046FFF73AFF102221463046C6
:102D9000FFF7BEFF582120460EF0FAFDFEBD0000F1
:102DA0004C000D0010B5012105E0024600BF13469E
:102DB000521E002BFBD10B46491E002BF5D110BD36
:102DC00008B5694601200EF031F868460078FFF733
:102DD000E9FF08BDF7B582B004460F460020019018
:102DE0000090FFF7EDFF002C01D0002F02D1FF2053
:102DF00005B0F0BD25463E460FE028783178884280
:102E000003D00198401C019002E00098401C009003
:102E10006D1C761C0498401E049004980028ECD881
:102E20000198E5E710B50246002000BF08E0135CFA
:102E30000C1A641E145D14540C1A641E1355401CA5
:102E40004C088442F3D810BD074800680749086061
:102E50000020C0430449803108607047034800687F
:102E6000014908607047000000E100E08C000D009F
:102E7000FFB5FFB086B00F4614461D46780202909B
:102E8000002C04D1E81DFF30F930460A0CE0E01DAB
:102E9000FF30F930410A01204002001B281AFF30A0
:102EA000FF300130400A0E18B8197249098888426B
:102EB00003D901207FB00AB0F0BD8598839000202F
:102EC00084902DE00122520203A80299FDF70BFA2B
:102ED000281901214902884203D90846001B0190A4
:102EE00000E0019503A90819019A83990EF09DFC51
:102EF0000298FDF796F90122520203A90298FDF704
:102F0000AEF90298FF30FF300230029001998398A9
:102F100040188390002401982D1A8498401C8490B6
:102F20008498B042CED30020C4E7F7B582B00D46F6
:102F30001446002C03D001204002844202DD01200F
:102F400005B0F0BD29194B4800884B4A1288801AF9
:102F5000401C4002814201D90120F1E74648008827
:102F600040024619F005C00D0090F001000C0190E0
:102F70002346009A01990298FFF77AFF0746002F2F
:102F800001D00120DCE70020DAE7F7B582B00D467A
:102F90001646A91937480088374A1288801A401CFB
:102FA0004002814202D9012005B0F0BD029F2BE012
:102FB000EC05E40D680A30490988401880B2019098
:102FC000019840020019009001204002001BB0420D
:102FD00014DA01204002021B38460099FDF783F9FC
:102FE00001204002001B301A86B201204002001B63
:102FF000451901204002001BC71905E0324638463A
:103000000099FDF770F90026002ED1D10020CBE702
:10301000024601208002814201DB0120704791427B
:1030200001DA0120FAE714480280124801800020EA
:10303000F4E770B504460D46002D01D1012070BDA6
:10304000681E400201190B4800880B4A1288801A3A
:10305000401C4002401E814201D90120EFE7064892
:1030600000884002061929463046FDF7EAF800209C
:10307000E5E7000092000D0090000D0008B56846DD
:10308000D8F041FC6846007854490870684640789A
:10309000534908706846807852490870084600789D
:1030A000152804D1012040054F4908601DE04D4816
:1030B0000078162804D1012080054B49086014E0EF
:1030C00048480078172804D10120C0054649086007
:1030D0000BE044480078182804D10120000642493A
:1030E000086002E000204049086008BDF0B53F4B91
:1030F0009D4405460F461446380B01033C4868447E
:1031000081603905090D416038E0394A3848684422
:10311000816801A8D8F074FC202135486844806893
:10312000D8F044FC32486844466806E0287801A993
:1031300088556D1C761C601E84B22D48864201D2D3
:10314000002CF3D1FF2301331022294969448968F7
:1031500001A8D8F0B5FC00900098002804D0009891
:10316000234B0C339D44F0BD2148684480682049BE
:1031700041181F486844816000214160002CC4D17F
:103180000020EDE7F7B582B00E461446F0B201908C
:103190001FE0FF2101310198081AA04201D9204601
:1031A00003E0FF2101310198081A05462B46012250
:1031B00031460298D8F084FC0746002F02D0012047
:1031C00005B0F0BD00200190641B029840190290E8
:1031D0007619002CDDD10020F2E7000004000D007C
:1031E00005000D0006000D0000000D00F4EFFFFFCC
:1031F0000010000001460022FF204A30814201DD1C
:103200000C2207E008461730C317DB0E1B185B11B2
:103210005B1CDAB21046704710B5F64800780028FB
:1032200003D0F448007802284CD1F34800780128F4
:1032300048D1F2480078002844D1F1480288F14989
:10324000F14800680EF0F1FA01F052FDEF48006815
:103250004088401DEE49088008460088FFF7CAFFF5
:10326000EC490870E94800684088FF2109020840DD
:103270000012E649096849880906090C0843E34930
:1032800009684880E4480078012809D0E0480088AF
:10329000421EDE480168DF48401C0EF0C6FA06E018
:1032A0000422DA480168DB48401C0EF0BEFAD74819
:1032B00000680021018041800120D0490870002071
:1032C000CD49087010BD0020D4494860D4484861F9
:1032D00070470020D1494860D14848617047F3B534
:1032E0000025019900233AE000BF0126CD4F3E7131
:1032F0003E46347A02262640022E04D02E466D1C0D
:10330000C94FBE42F1D38326C64F3E7182263E711D
:1033100080263E71102901D9102600E00E46F0B239
:10332000002206E09F18009EF65DBE4F3E72561CBE
:10333000B2B28242F6DB8126BA4F3E71002500BF51
:103340004126B84F3E713E46347AE607F60F04D167
:103350002E466D1CB44FBE42F2D31B18091A002929
:10336000C2D10126AF4F3E713E46367AFCBDF3B561
:1033700087B000200390052002900020019008985B
:10338000461D7BE0FF200130864200D900E0304638
:1033900084B2FFF759FD039A079881189D4A029855
:1033A000131822461846D8F02BFBFFF757FD02985A
:1033B000271800200690029805280ED100200290C0
:1033C00094484078902803D192488078002804D00F
:1033D0002646052701208F49087049E000BF0120DB
:1033E000904908710846007A049002210498084028
:1033F000022805D00198411C01918B498842EED3E7
:103400008320884908718220087180200871102F5C
:1034100001D9102000E03846C5B2002005900AE02E
:103420000599069840187B49085C7E490872059802
:10343000401C80B205900598A842F1DB81207949B3
:1034400008710020019000BF4120764908710846AC
:10345000007A04900498C007C00F05D10198411C60
:10346000019171498842EFD30698401906907F1B5D
:10347000002FB3D1039800190390361B002E81D181
:103480000120684908710846007A09B0F0BD1CB5F2
:1034900000200090019057480078012804D10521B0
:1034A0006248FFF71CFF51E054480078002821D102
:1034B0005148007800280CD101216846017065212F
:1034C000417000218170C17001710521FFF707FF74
:1034D0003CE049480078012838D101216846017054
:1034E0006121417000218170C17001710521FFF7D8
:1034F000F6FE2BE048480078002805D144480188B2
:103500004448FFF7ECFE0CE0494801884948006850
:10351000FFF72DFF002040490870464908604449E4
:1035200008803B4A1188CA17120F52181211120153
:103530008A1A09D03E4A1288501DC217120F12185B
:1035400012111201821A01D1FDF763FA1CBD70B588
:10355000002517E000BF4020324908710846047A70
:10356000E007C00F0128F6D12648401E324A1288D3
:1035700081180020FDF789F905462F480088401979
:103580002D4908802C4800881D4909888842E1DBC4
:10359000FDF73FFA70BDF8B5002522E000BF4020DE
:1035A000204908710846047AE007C00F0128F6D1C7
:1035B00000200871802008710846057A002603E083
:1035C0001848077A701C86B2AE42F9DB3E461A48AC
:1035D0000088401918490880832012490871822008
:1035E000087115480088064909888842D6DBFDF72E
:1035F00010FAF8BDD3000D0095000D0094000D00E9
:103600009A000D00D1020D00E4000D00E8000D004D
:103610009E000D0018040D00D8000D0038020D00AA
:1036200000010D0080A00F0040420F0096000D0029
:10363000DA000D00DC000D009C000D0010B52748DD
:103640000088082805DB25480088FF214131884291
:1036500007DDFFF7A0FF00202049088020490880EF
:1036600010BDFFF774FF1D4800881D490988884276
:103670002BD11C480078002815D11B484078B02871
:1036800003D019484078B42803D1022015490870A6
:1036900009E06E20154948700020887014490870B0
:1036A0000120144908700F480078022806D1012033
:1036B0000F49087000200F4908700DE000200C49E8
:1036C000087001200B49087006E0002004490880BA
:1036D000074908700749087000BFC1E79A000D004C
:1036E0009C000D00D3000D00D0020D0096000D00CF
:1036F00095000D0094000D0010B5014601200A6AE6
:10370000002A07D00322FC4B1A70FC4B0A6A1A608D
:1037100000BF10BDFA4A1278032A04D10622F64BE4
:103720001A70012027E0F64A1278002A16D1F54ACD
:1037300013781278521CF34C2270042B06DD012200
:10374000EF4B1A70002223461A7002E00022EC4B65
:103750001A700622E84B1A7001200CE0E84A127831
:10376000012A07D10222E64B1A700522E24B1A7099
:10377000012000E0002000220A62E04B1A6000BF36
:10378000C7E770B504460D46DF490968DF4A881A65
:1037900029460EF018F9A04205D92946DB480EF05B
:1037A0001CF9041907E0D8490968D84A881A29463B
:1037B0000EF009F9241A204670BDF7B5C4B00F46C3
:1037C0001446FF21013104A80EF0E2F838466043A8
:1037D0000646002003900025FF2001900020009065
:1037E00021464498FFF7CDFF604303906AE0FF2035
:1037F0000130864200D900E0304685B2C4480078E6
:10380000002805D1FF22511C04A80EF09AF808E008
:10381000FFF71AFB2A4604A80399D8F0F1F8FFF73E
:103820001DFBBC48056004A8BB49086042E0B948DC
:103830000068402804D8B7480068B849087002E01A
:103840004020B6490870B3480068B4490978401A66
:10385000B04908600520B249087180200871002035
:1038600002900DE0AC4800680078AD490872AA48A3
:103870000068401CA84908600298401C80B2029071
:10388000A649097802988842ECDB8120A449087196
:1038900000BF4520A24908710846007A01900098AF
:1038A000401C00900198C007C00F03D19D490098AB
:1038B0008842EED3974800680028B8D1761B039859
:1038C00040190390002E92D10220974908700020E1
:1038D00047B0F0BDF8B50446002700250026E07C7F
:1038E0000102207D0F18A07D0102E07D081885B23D
:1038F000206A400AA84202D1012676020EE0206A20
:10390000C00AA84202D10126F60207E07B49206ADC
:1039100008600320784908700120F8BD0220824920
:103920000870324629463846FFF747FF0090284680
:103930007043216A081A714908600098EDE770B574
:10394000744D2968002400BF00BF0525744E3571F1
:1039500035462A7A02251540022DF6D18225357189
:1039600080253571402901D9402500E00D46E8B297
:1039700000230BE0684D2D682D78694E3572664D39
:103980002D686D1C644E35605D1CEBB28342F1DB2B
:103990008125634E357100BF4525614E3571354631
:1039A0002A7AD507ED0FF7D02418091A0029CBD1B0
:1039B00070BD70B505460C46224629465B480DF0A1
:1039C00034FF54480460594853490860FFF7B7FF73
:1039D00070BD70B58AB0044600262025242254A16B
:1039E00001A8FCF7C1FB2426206A242801D2206A02
:1039F000C6B2372001A94855312101AAA81C11548B
:103A00003421E81C1154314601A8FFF7D2FF206A87
:103A1000801B3A4908600020206202204249087059
:103A200000200AB070BD7CB504464AA103C90191CB
:103A300000900025607C2A2807D03049206A086061
:103A400003202D49087001207CBD206A082801D977
:103A5000082000E0206A054629466846FFF7A9FFCE
:103A6000206A401B2549086002202F490870002069
:103A7000EAE77CB5044639A103C90191009000250D
:103A80001F48007800280BD106201B4908701B49ED
:103A9000206A086000216846FFF78BFF01207CBD8B
:103AA000206A082801D9082000E0206A0546164847
:103AB0000068002814D0144800681449401AC00A4D
:103AC000401E0004010E684681700F480068952171
:103AD000C902401AC00A401EC1B26846C17041E026
:103AE0000649206A086007200349087000216846DB
:103AF000FFF75FFF0120D2E7A7000D00A8000D002F
:103B0000D2000D00AD000D0000000D0000A80C005B
:103B100004000D00C0000D00C4000D00B6000D0033
:103B200080A00F0040420F00D1000D00600B0D007F
:103B3000058000021F000000434649535420202006
:103B4000557461702020202020202020202020205B
:103B5000342E30300006000000000000000000009D
:103B60000000080029466846FFF723FF206A401B33
:103B7000F84908600220F849087000208FE73EB538
:103B80000446F6A207CA6B4607C30025206A0C2824
:103B900001D90C2000E0206A054629466846FFF757
:103BA00008FF206A401BEB4908600220EA490870C0
:103BB00000203EBD30B585B004460025142168467E
:103BC0000DF0E6FEE57C122D00D91225206AA842F0
:103BD00000D2256A294668460DF0DAFE7021684653
:103BE00001700A21C171E048007841004018DF49A6
:103BF000095C68468170DC48007841004018DB4968
:103C00004018417868460173D74800784100401851
:103C1000D64940188178684641732946FFF7C9FEA6
:103C20000020D1490870206A401BCA490860002062
:103C3000206205B030BD38B50446CDA000680090C4
:103C40000025206A042801D9042000E0206A0546E6
:103C500029466846FFF7ADFE206A401BBD49086053
:103C60000220BD490870002038BDF8B504460D4655
:103C7000C049204696300DF0B0FEC6B231463C2217
:103C800051434B22514322469632501A4B210DF09C
:103C9000A4FEC7B230463C2148434B21484321464D
:103CA0009631091A4B207843081AC0B200902E7042
:103CB0006F700098A870F8BDF0B597B00446142254
:103CC000ADA110A8FCF750FAB0A207CA0DAB07C30C
:103CD0003022B1A101A8FCF747FA607C05072D0F3F
:103CE000207EC0210840074600200090002D23D1EF
:103CF000002F21D1206A142801D9142000E0206A65
:103D00000090207C022810D1022110A881720802A4
:103D1000159016A91598FFF7A8FF10A8017E417409
:103D2000417E8174817EC17404E0022110A88174F7
:103D30000021C17410AE34E0002D01D1402F01D01C
:103D4000012D0DD1206A0C2801D90C2000E0206A39
:103D50000090207C022801D108A988770DAE20E0D0
:103D6000002D01D1802F01D0022D1AD1206A3028D8
:103D700001D9302000E0206A009001204002159017
:103D800016A91598FFF771FF10A8017E08A8817188
:103D900010A8417E08A8C17110A8817E08A80172F0
:103DA00001AE30460099FFF704FE216A0098081A18
:103DB00068490860022068490870002017B0F0BD0B
:103DC000F0B59FB0044600277FA103C91E911D9046
:103DD0007FA001460EC9C06819AD0EC51C9080A019
:103DE00001460EC9C06815AD0EC518903C2280A1D1
:103DF00006A8FCF7B9F914228CA101A8FCF7B4F9C4
:103E0000607C0102A07C081886B2002E08D1206ACE
:103E1000102801D9102000E0206A074619AD28E0DB
:103E2000012E08D1206A3C2801D93C2000E0206AFC
:103E3000074606AD1DE0022E08D1206A142801D9DC
:103E4000142000E0206A074601AD12E0032E08D1DD
:103E5000206A102801D9102000E0206A074615AD1D
:103E600007E0206A082801D9082000E0206A0746F8
:103E70001DAD39462846FFF79CFD206AC01B354919
:103E8000086002203449087000201FB0F0BD7CB5E6
:103E90000446002000900190206A082801D90820DB
:103EA00000E0206A054629466846FFF782FD206A41
:103EB000401B2849086002202749087000207CBD6B
:103EC0000146CA7C9207920F01D100200DE0CA7C06
:103ED0009207920F022A04D10322594B1A70002034
:103EE00003E00322204B1A700120704710B55520C3
:103EF0005449087053204870422088705320C8707D
:103F0000002406E0201D5049095C4E4A1154601CF3
:103F1000C4B2042CF6DB4D4800684A4908724B488D
:103F200000680004000E4872484800680002000E55
:103F3000887246480068000EC872454800780873C9
:103F40000D20444908603F4843490860FFF7F7FCEB
:103F500010BD0000A8000D00D1000D0000000008F9
:103F6000000000FF02000200A7000D004E1F01002C
:103F7000040000009411000000120101001401006F
:103F8000000000000014AA0000000000000A010167
:103F90000014010000000000002E0101011400A027
:103FA00000000000010000011400A1000000000159
:103FB0000000011400A20000000000000001140035
:103FC00001000000000002000000000400000008E2
:103FD0000000000C000000080000030400080100BD
:103FE0000000000C00000008000303042000000093
:103FF000000000380000000800000308000801006D
:104000000009000000010B0800000008010000008A
:10401000000207040200000000030704390000004A
:10402000001003080000080000010000000000105C
:10403000000000080000030800080100000900005B
:10404000D2000D00600B0D0060090D00CC000D00CA
:10405000D0000D00C0000D00C4000D0030B522E0FE
:1040600000BF4424F64D2C712C46237ADC07E40F64
:10407000012CF6D104242C7180242C712C46207A3A
:10408000002108E0EF4C2468641CEE4D2C60EC4CE1
:10409000227A4C1CE1B28142F4DB11460424E84D43
:1040A0002C7182242C71E74C2468E74D2D68AC42BA
:1040B000D6D330BDF3B587B0002003900420029022
:1040C00000200190E148007802287DD10898051D64
:1040D00076E0FF200130854200D900E0284684B216
:1040E000FEF7B2FE039A07988118D94A029813186E
:1040F00022461846D7F084FCFEF7B0FE0298271837
:1041000000200690029804280BD100200290D0488D
:104110000078902803D1CE484078002801D0254669
:10412000042747E000BF0520C54908710846007A0A
:104130000490022104980840022805D00198411CEF
:104140000191C4498842EED38220BD490871802084
:104150000871402F01D9402000E03846C6B2002047
:1041600005900AE0059906984018B949085CB449D9
:1041700008720598401C80B205900598B042F1DBAA
:104180008120AF4908710020019000BF4520AC4953
:1041900008710846007A04900498C007C00F05D142
:1041A0000198411C0191AB498842EFD306988019D0
:1041B0000690BF1B002FB5D10398001903902D1B4B
:1041C000002D86D1002000E00DE0A3490880089969
:1041D000081DC117890E091889118901411A09D1D1
:1041E000FCF7A9FC06E04520954908710846007ACD
:1041F0009A49087009B0F0BDFEB5002000909348C0
:104200000078022851D19448048800263FE000BF7E
:1042100005208B4908710846007A01900221019817
:104220000840022805D00098411C00918949884225
:10423000EED382208249087180200871402C01D978
:10424000402000E02046C5B2002706E0F019804972
:10425000085C7B490872781C87B2AF42F6DB81208C
:10426000774908710020009000BF4520744908710B
:104270000846007A01900198C007C00F05D1009848
:10428000411C009173498842EFD37619641B002CBE
:10429000BDD171490888C117890E09188911890192
:1042A000411A09D1FCF747FC06E045206449087132
:1042B0000846007A69490870FEBDF8B568A0006834
:1042C000009024E000BF44205D4908710846047A4C
:1042D000E007C00F0128F6D1042008718020087182
:1042E0000846057A00260BE05548017A55480268D1
:1042F0000068401C534B18605A488154701CC6B269
:10430000AE42F1DB04204E490871822008714D480D
:1043100000684D4909688842D4D34A4800684A4930
:104320000968884203D101204849087019E0042235
:10433000694647480DF079FA042047490880424809
:10434000006840490968401A474908600020474909
:104350000870FFF7CBFD02203C4908700020394966
:104360000860F8BD30B589B041480078552866D15D
:104370003F4840785328FAD13D4880784228F6D10A
:104380003B48C0784328F2D11F22394968460DF0D6
:104390004CFA00200890002408E002A8055DE20025
:1043A00028469040089908180890641C042CF4D3FF
:1043B0002F48C07B2A2877D014DC1B2875D008DC56
:1043C000002824D0032871D0122855D01A286ED185
:1043D000A4E01E286CD023287FD025286BD0282865
:1043E000F5D120E04A2872D008DC2E2870D02F2882
:1043F0006FD043286ED04628E9D1A7E051286AD073
:104400005A2845D0AA2867D0FF28E0D1CDE06846D9
:10441000FFF772F9154908701648006812490860DC
:10442000FFF764FD44E16846FFF754FA0F4908704E
:10443000104800680C490860FFF758FD38E138E182
:1044400080A00F00B0000D00BC000D00AC000D00FE
:1044500060070D0040420F00B4000D00B6000D00D3
:104460006A82000060050D00CC000D00D0000D0038
:1044700060090D00A8000D006846FFF7AAFAC349BD
:104480000870C3480068C3490860FFF72FFD0FE1BB
:104490006846FFF7C8FABD490870BD480068BD49C5
:1044A0000860FFF723FD03E165E0CBE021E0D5E004
:1044B0002BE012E0FFE76846FFF7DBFAB34908702C
:1044C000B3480068B3490860FFF710FDF0E0ACE0C6
:1044D00048E062E02EE0A9E056E06846FFF74FFBB7
:1044E000AA490870AA480068AA490860FFF7FEFCBC
:1044F000DEE06846FFF75EFBA4490870A448006848
:10450000A4490860FFF7F2FCD2E00020A14908604E
:1045100001209E490870FFF7E9FCC9E06846FFF7F3
:104520008AFB9A4908709A4800689A490860FFF720
:10453000DDFCBDE06846FFF7BFFB94490870944876
:10454000006894490860FFF7D1FCB1E06846FFF7C6
:1045500037FC8E4908708E4800688E490860FFF766
:10456000C5FCA5E000208B49086001208749087040
:10457000FFF7BCFC9CE000208649086001208349CD
:104580000870FFF7B3FC93E0002082490860012027
:104590007E490870FFF7AAFC8AE000207D49086088
:1045A0007A490870FFF7A2FC82E07B48007B8021FB
:1045B000084215D10020794908607748C07A000682
:1045C0007549897A090440187349497A09024018E3
:1045D0007149097A401872490860FFF76EFE23E0BE
:1045E00070480078002802D1FFF706FE0CE06E4804
:1045F00001886E480068FFF75DFD0020694908707A
:104600006A49086068490880694909880898401A19
:104610006049086000205D490870FFF767FC0020D2
:10462000634908806349087042E000BF6846FFF7AD
:104630002EFC564908705648006856490860FFF736
:1046400055FC35E06846FFF73BFC50490870504880
:10465000006850490860FFF749FC29E04E48007B9C
:104660008021084215D100204C4908604A48C07A90
:1046700000064949897A090440184749497A0902DC
:1046800040184549097A401845490860FFF7E6FC9B
:1046900003E000214848FFF78CF900203D490860FD
:1046A00001203A49087045490870FFF71FFC00BF18
:1046B00000BF09B030BD10B53E480078012864D174
:1046C0003F480078022807D13E4806F017FC00203A
:1046D0003D49096848801EE00120394908702F488B
:1046E0000068082805D32D480068FF214931884219
:1046F00008D96D20000206F001FC0020324909684B
:10470000488008E0254831490268314800680DF0CA
:104710008CF800F0EDFA2C4800684088001D244910
:104720000880294800684088FF21090208400012DB
:104730002549096849880906090C0843224909687E
:10474000488018480078002807D1194802881E4878
:10475000016820480DF069F805E004221A48016854
:104760001C480DF062F80E4800680C490968401AB0
:1047700008490860002005490870FFF7B7FB0220D0
:104780000C49087000200549086010BDD0000D00DC
:10479000A8000D00CC000D0060090D00B0000D0058
:1047A000BC000D00D8000D00DA000D00DC000D008B
:1047B000B4000D00AC000D00C41E0100A7000D00E8
:1047C000D3000D0041F30000E8000D0060050D006E
:1047D000E4000D0060070D0070B590B000251821B1
:1047E0000AA80DF0D5F800200690079008900990CF
:1047F000029003900490059000260024F848006879
:10480000C088FF214131884204DCF5480068808877
:10481000884208DDF24800684078EA2803D0672023
:10482000000210B070BDEE4800680078B02802D1D8
:1048300009200003F5E7EA4800680078B42802D0B0
:1048400069200002EDE7E64800688088002802D170
:1048500067200002E5E7E3480078012801D0E2483C
:10486000DFE7E248807D032874D1DD490968888844
:10487000C117490F0918C910C900411A02D0672091
:104880000002CEE71022D749091D0AA80CF0CDFF7F
:104890000822D449091D0EA80CF0C7FF18210AA848
:1048A000FCF7E0FC0546002D04D028467D21490296
:1048B0000843B6E702A9CA480068808801910090C1
:1048C000C748036808330268083203210120FCF757
:1048D000D6FC0546002D04D028467D214902084318
:1048E0009FE7BF480068807A0102BD480068C07A2F
:1048F000081884B2BA4800688088A04201DCBA482F
:104900008FE7B74800688088001B001FC6B2324698
:10491000102106A80DF015F8B14802680832201DD4
:104920001118324606A80CF053FF002801D0AE48FB
:1049300077E7AB480068007AAA494978884206D1EF
:10494000A7480068417AA7488078814203D0A648EA
:10495000401C66E70DE02246A14801680C31006862
:1049600008300CF0C6FF9E480068848009200003D0
:1049700057E79E48807D132871D199490968888836
:10498000C117090F091809110901411A02D067203E
:10499000000246E793480078012801D0924840E79A
:1049A00010229049091D0AA80CF03FFF0AA8FCF745
:1049B000DCFC0546002D04D028467D214902084331
:1049C0002FE702A800908648006883888448026820
:1049D0000832016808310220FCF72CFD0546002D45
:1049E00004D028467D21490208431AE77C48006824
:1049F000807A01027A480068C07A081884B2784840
:104A000000688088A04201DC77480AE774480068A3
:104A10008088001B001FC6B23246102106A80CF089
:104A200090FF6F4800680830221D8118324606A8A2
:104A30000CF0CEFE002801D06B48F2E66848006812
:104A4000007A68494978884206D165480068417A09
:104A500064488078814203D06348401CE1E60DE061
:104A600022465F4801680C31006808300CF041FFB5
:104A70005B480068848009200003D2E65C48D0E6E9
:104A8000F0B591B0002700200D900E900F9010907F
:104A9000182107A80CF07CFF0020039004900590DB
:104AA00006900025002653480068448800200290A4
:104AB000FF204130844203DD6720000211B0F0BDC9
:104AC000474800680078B02802D109200003F5E7C4
:104AD00002A902200CF0AAF942486946097A4170FD
:104AE0006946497A81704148807D032877D108253D
:104AF000FF204130401BA04202DA67200002DDE7C0
:104B000026460BE0701E3B490968091D0A5C3948BE
:104B10000068001DF11C4254701E86B2002EF1DCAC
:104B2000201234490968887132480068C471A01C99
:104B300084B230480068694609898180A01C84B22B
:104B4000294620460CF049FF681A024610210190C0
:104B50000DA80CF0F6FE294620460CF03EFF681A20
:104B6000244901900968091D08190DA9019A0CF042
:104B70005CFE294620460CF030FF681A001984B20A
:104B800010221849091D07A80CF04FFE08221549EC
:104B9000091D0BA80CF049FE182107A8FCF762FBC1
:104BA0000746002F04D038467D214902084385E797
:104BB00003A8009401900F4803681B1D0268121D92
:104BC00003210020FCF75BFB07460A48006844808D
:104BD000002F11D038467D21490208436EE70EE0D0
:104BE000E4000D00BE180D0025F50000DE210100D7
:104BF00071F30000E8000D00092000035EE776482D
:104C0000807D132872D11025FF204130401BA04227
:104C100002DA6720000251E726460BE0701E6F495A
:104C20000968091D0A5C6D480068001DF11C4254AA
:104C3000701E86B2002EF1DC201268490968887166
:104C400066480068C471A01C84B264480068694664
:104C500009898180A01C84B2294620460CF0BDFE43
:104C6000681A0246102101900DA80CF06AFE294630
:104C700020460CF0B2FE681A584901900968091DD7
:104C800008190DA9019A0CF0D0FD294620460CF018
:104C9000A4FE681A001984B21022514907A80CF02A
:104CA000C4FD07A8FCF761FB0746002F04D0384677
:104CB0007D214902084301E703A8234600904748A5
:104CC0000268121D0168091D0120FCF7B3FB0746AD
:104CD000424800684480002F04D038467D214902B4
:104CE0000843EBE609200003E8E6FFE73D48E5E678
:104CF00070B5002409252D0300200CF07FF83A48F8
:104D000000688088FF2109020840001236490968BE
:104D100089880906090C08433349096888803248A4
:104D20000068C088FF210902084000122E49096866
:104D3000C9880906090C08432B490968C880FFF790
:104D40004BFD054609200003854200D033E00024D6
:104D50002CE0062060432549401840782249096824
:104D60004978884220D1062060432049085C1E49CA
:104D700009680978884202D069252D021BE00CF0F1
:104D80002BFA054609200003854200D013E00621D6
:104D90006143164A8918881C0CF0FCFD0646B04792
:104DA000FFF76EFE054606E0601CC4B2412CD0D36E
:104DB0006D252D0200BF09200003854206D000208A
:104DC000064909684880284606F098F80CF040FB30
:104DD00001200CF013F870BDDE210100E8000D0089
:104DE000C2180D0071F30000E4000D00781F0100EF
:104DF0007FB504460E4609252D0300200090019042
:104E000002900390684604802021017109F0EBFEB6
:104E1000054609200003854200D007E0B123324651
:104E2000D02100200BF0F6F8054600BF284604B05C
:104E300070BD70B509252D030024FA4800688078FC
:104E4000002804D1F7480068C078002801D0F64D4A
:104E500027E0F44800688088D22804D1F14800682F
:104E6000C088002802D067252D021AE0ED480068AE
:104E7000007A0102EB480068407A081884B2002CDE
:104E800001D0E94D0DE0E94800883F2801D0E84D08
:104E900007E0E44801680A312046FFF7A9FF05460C
:104EA00000BF0020E34909684880284606F026F83C
:104EB00070BD7FB506460C4609252D0300200090E5
:104EC0000190029003900021684601802021017129
:104ED00009F089FE054609200003854200D006E05E
:104EE00022462821A8200BF07CF9054600BF284661
:104EF00004B070BDF0B58DB00F46164609252D03E0
:104F0000002400200C90202104A80CF041FD00207A
:104F100000900190029003900021684601802021BA
:104F2000017109F060FE054609200003854200D0AA
:104F300029E004AA202100200BF053F9054609209E
:104F40000003854200D01EE06846007CFF2817D091
:104F50006846007C002813D0002408E004A8005D07
:104F6000002802D1E0B20C9003E0601C84B2202C37
:104F7000F4DB00BF202204A938460CF056FC01E007
:104F8000AD4D00E000BF0C98307028460DB0F0BD6C
:104F900030B593B00924240300250020129020216D
:104FA0000AA80CF0F5FC282168460CF0F1FC9D489D
:104FB00000688078002804D19A480068C0780028EA
:104FC00001D0994C39E0974800688088022804D1C4
:104FD00094480068C088482802D0672424022CE046
:104FE00090480068007A01028E480068407A0818EC
:104FF00085B212AA0AA92846FFF77CFF04460920B9
:105000000003844200D018E069462846FFF751FFAC
:10501000044609200003844200D00EE020220AA9A1
:1050200084480068001D0CF000FC28226946814875
:10503000006824300CF0F9FB00BF09200003844213
:1050400003D178480068C08800E0002079490968E9
:105050004880204605F052FF13B030BD38B5092412
:105060002403FF20009001221F2149026846FDF71A
:105070005CFF002801D0714C00E000BF204638BD25
:105080007FB509252D030020009001900290039028
:105090000024002620206946087100BF0AE0200194
:1050A0000321890340186946088068460AF08BFF8F
:1050B000601CC4B2052CF2DB0D2000036946088099
:1050C00068460AF080FF01241DE0002617E0600119
:1050D0000D210903401880196946088068460AF0C6
:1050E000C7FA054654480E38854200D105E009202C
:1050F0000003854200D009E000BF701CC6B2052E37
:10510000E5DD601CC4B2042CDFDD00BF4A480E3868
:10511000854201D109252D03284604B070BD31B563
:105120000924240301221F2149026846FDF7FDFEE0
:10513000002801D0414C00E000BF204638BD10B52A
:10514000BAB00924240300203990202131A80CF0A2
:105150001FFCC42168460CF01BFC324800688078B4
:10516000002873D12F4800688088022802D0672465
:10517000240246E12B480068C088942802D06724A6
:1051800024023EE127480068C078002801D0264C60
:1051900037E12B48007A012822D105F018F804469F
:1051A00009200003844200D02BE1264800781D49E5
:1051B0000968497888421CD000200BF081FD044624
:1051C00009200003844200D01BE101201D49C87062
:1051D00005F00CF8044609200003844209D010E1D0
:1051E00001200BF06DFD044609200003844200D02D
:1051F00007E110221349091D0E480068001D0CF03C
:1052000014FB80220F4914310A48006814300CF056
:105210000CFB04220C490748006894300CF005FB95
:10522000EEE013E0E4000D00866A0000FC000D00D3
:1052300004F60000E8000D0010F1000011F300007A
:10524000BC140D00AA160D003E2201007E48006825
:10525000807801287DD17C480068C088002802D071
:1052600067242402CDE07948007A01280FD104F0A8
:10527000AEFF044609200003844200D0C1E004F0E0
:10528000C5FF044609200003844200D0B9E00BF0BA
:1052900045FD044609200003844200D0B1E06B487C
:1052A000007A012856D168480068C078012801D0EA
:1052B000674CA6E0684603F03AFB04460920000369
:1052C000844200D09DE06846427801A931A8FAF7EF
:1052D0004BFF6946497831AA881810225D490CF0C5
:1052E000A4FA5D48807D032817D15748006880885C
:1052F000822802D06724240283E068464078024670
:10530000103231A9504800680A3004F000F9044610
:105310000920000384424DD073E04F48807D13285C
:1053200048D1494800688088422802D06724240276
:1053300067E0684640780246103231A9424800686A
:105340000A3004F02FF8044609200003844231D0CB
:1053500057E053E03C480068C078002801D03C4C3E
:105360004FE0394800688088822802D067242402F0
:1053700047E039AA344801680A3100680A3004F06D
:1053800087FF044609200003844200D039E038A892
:105390000079102801D0314C33E02B4802680A32E2
:1053A000102100200BF07EFA0446092000038442FD
:1053B00000D026E000F07CFCA120FFF7B0FE044600
:1053C00009200003844200D01BE0FFF759FE044689
:1053D00009200003844200D013E001200BF0E1FB20
:1053E000044609200003844200D00AE0FFF736FE9D
:1053F000044609200003844202D002E0144C00E07D
:1054000000BF09200003844203D10F480068C08810
:1054100000E00020124909684880204605F06EFD32
:105420003AB010BD70B5044609252D0301221F2195
:1054300049022046FDF7A9FD002801D0094D00E0F2
:1054400000BF284670BD0000E4000D00BC140D0034
:10545000866A0000AE160D00DE21010024F5000072
:10546000E8000D0012F3000010B509242403FA48E7
:1054700000688078002804D1F7480068C0780028C8
:1054800001D0F64C3AE0F44800688088002802D049
:105490006724240232E0F0480068C088062802D061
:1054A000672424022AE0EE480078002801D1ED4C60
:1054B00024E0EB480078EC4909680871EB48017872
:1054C000E94800684171EA480068010EE648006852
:1054D0008171E74800680002010EE3480068C1716D
:1054E000E34800680004010EDF4800680172E048EC
:1054F0000068C1B2DC480068417200BF09200003A7
:10550000844203D1D4480068C08800E00020D64916
:1055100009684880204605F0F1FC10BD70B50925EA
:105520002D03CD4800688088002804D1CA4800684F
:10553000C088002802D067252D021DE0C6480068FB
:105540008078002804D1C4480068C078002801D0C1
:10555000C24D11E0C2480078002801D1C14D0BE0D6
:10556000FDF772FCD6F0FAF90446FDF777FC002C43
:1055700001D0BC4D6D1E00BF0020BB4909684880AA
:10558000284605F0BBFC70BD70B509263603002522
:105590000024B14800688078002804D1AE48006833
:1055A000C078002801D0AD4E41E0AB48006880884B
:1055B000C11FFD3904D1A8480068C088002802D066
:1055C0006726360233E0A6480078002801D1A54EB0
:1055D0002DE0A1480068007A01069F480068407AE3
:1055E000000409189C480068807A000209189A484B
:1055F0000068C07A0C18E01DF9309D49096888429E
:1056000002D9984E761C12E0FDF71EFCFF220132F3
:105610002146914800680C30FDF7B4FD0546FDF7C2
:105620001DFC002D02D08F4EF61E00E000BF0020B2
:105630008D4909684880304605F060FC70BD70B542
:10564000092424030026844800688078002804D1B7
:1056500081480068C078002801D0804C44E07E4832
:1056600000688088042805D17B480068C088C11F75
:10567000F93902D06724240236E0794800780028FE
:1056800002D1784CA41E2FE073480068007A01060E
:1056900071480068407A000409186F480068807AF1
:1056A000000209186C480068C07A0E186A48006841
:1056B000C08880196E490968884202D9694C641C07
:1056C00012E0FDF7C1FB64480068C28831466648B5
:1056D0000068001DD6F094F90546FDF7BFFB002DCC
:1056E00001D0604CA41E00BF09200003844203D1F6
:1056F00059480068C08800E000205B49096848807C
:10570000204605F0FBFB70BD10B509242403524868
:1057100000688078002804D14F480068C0780028CD
:1057200001D04E4C11E04C4800688088002804D11C
:1057300049480068C088012802D06724240204E098
:10574000002049490968087100BF0920000384420C
:1057500001D1012000E0002043490968488020462B
:1057600005F0CCFB10BD38B509252D030024002021
:105770000090394800688088002804D136480068C5
:10578000C088002802D067252D024BE0324800680F
:10579000C078002801D0314D44E02F48006880785F
:1057A000012804D007280DD0112820D115E00120B0
:1057B00008F00AFC0446002C03D07D204002204360
:1057C000054616E0072008F0FFFB0446002C03D036
:1057D0007D204002204305460BE008F098FC04467B
:1057E000002C03D07D2040022043054601E01B4DE4
:1057F00000BF00BF09200003854212D168460BF0AC
:10580000EDFE05460920000385420AD1684600885E
:105810003F2806D140210091684600880BF0F6FE33
:10582000054600BF0020104909684880284605F059
:1058300065FB38BD70B509263603002500240648EF
:1058400000688078002804D103480068C0780028E8
:1058500010D0024E57E00000E4000D00866A000000
:1058600004000D0004F30000E8000D0006000D0028
:1058700000000D00FD4800688088FF210531884246
:1058800004DCFA480068C088002802D06726360287
:1058900039E0F7480078002801D1F64E33E0F348AC
:1058A0000068007A0106F1480068407A000409188F
:1058B000EE480068807A00020918EC480068C07A57
:1058C0000C18EA4800688088001F00190121C904EB
:1058D000884202D9E74E761C15E0FDF7B5FAE34899
:1058E00000688088001F82B22146E04800680C30C2
:1058F000FDF7FCFB0546FDF7B1FA002D02D0DD4EA9
:10590000F61E00E000BF0020DB49096848803046F1
:1059100005F0F4FA70BD70B509252D030024D348B5
:1059200000688078002804D1D0480068C07800283A
:1059300001D0D24D43E0CD4800688088042806D1CC
:10594000CA480068C0880121C902884202DD672573
:105950002D0234E0C6480078002802D1C54DAD1EA6
:105960002DE0C2480068007A0106C0480068407A0D
:1059700000040918BD480068807A00020918BB4875
:105980000068C07A0C18B9480068C0880019012165
:10599000C904884202D9B74D6D1C10E0B8480460B4
:1059A000B2480068C088B74908800120B64908702D
:1059B000AE480068C088B0490968488000BF2846E2
:1059C00005F09CFA70BD30B5BFB009252D03002449
:1059D00000203B903C903D903E9074211EA80BF01F
:1059E000D7FF10201D90602102A80BF0D1FF02A864
:1059F0001A900AA81B9012A81C909C480068C078B6
:105A0000002801D09D4D94E09848006880780028D7
:105A100002D001287AD136E09448006880881028A6
:105A200004D192480068C088402802D067252D0222
:105A30007FE00023FF2201321AA91CA8FCF7AAF874
:105A40000446002C04D07D2040022043054670E02F
:105A500060220D21490202A8FDF767FA002802D052
:105A6000844D0D3565E081480068C2880D214902EA
:105A700081480068001DFDF788FA002802D07D4D9E
:105A80000D3556E053E0794800688088812804D1BC
:105A900076480068C088002802D067252D0248E0BB
:105AA0002022692189011C98FDF76FFA002802D095
:105AB000704D0D353DE072226C48016818311EA80A
:105AC0000BF0B3FE71201EAB1DAA3BA900901CA8D1
:105AD000FCF7EEF80446002C19D010201D9072221D
